{
  "contractName": "Work4me",
  "abi": [
    {
      "inputs": [],
      "payable": true,
      "stateMutability": "payable",
      "type": "constructor"
    },
    {
      "constant": true,
      "inputs": [],
      "name": "client",
      "outputs": [
        {
          "internalType": "address payable",
          "name": "",
          "type": "address"
        }
      ],
      "payable": false,
      "stateMutability": "view",
      "type": "function"
    },
    {
      "constant": true,
      "inputs": [],
      "name": "manager",
      "outputs": [
        {
          "internalType": "address",
          "name": "",
          "type": "address"
        }
      ],
      "payable": false,
      "stateMutability": "view",
      "type": "function"
    },
    {
      "constant": true,
      "inputs": [],
      "name": "valueTask",
      "outputs": [
        {
          "internalType": "uint256",
          "name": "",
          "type": "uint256"
        }
      ],
      "payable": false,
      "stateMutability": "view",
      "type": "function"
    },
    {
      "constant": false,
      "inputs": [],
      "name": "openTask",
      "outputs": [],
      "payable": true,
      "stateMutability": "payable",
      "type": "function"
    },
    {
      "constant": false,
      "inputs": [],
      "name": "enter",
      "outputs": [],
      "payable": false,
      "stateMutability": "nonpayable",
      "type": "function"
    },
    {
      "constant": false,
      "inputs": [],
      "name": "finalizeTask",
      "outputs": [],
      "payable": true,
      "stateMutability": "payable",
      "type": "function"
    }
  ],
  "bytecode": "0x6080604052336000806101000a81548173ffffffffffffffffffffffffffffffffffffffff021916908373ffffffffffffffffffffffffffffffffffffffff16021790555061040f806100536000396000f3fe6080604052600436106100555760003560e01c8063109e94cf1461005a578063481c6a75146100b157806369133f4514610108578063a20fca5a14610112578063ca8b7b531461011c578063e97dcb6214610147575b600080fd5b34801561006657600080fd5b5061006f61015e565b604051808273ffffffffffffffffffffffffffffffffffffffff1673ffffffffffffffffffffffffffffffffffffffff16815260200191505060405180910390f35b3480156100bd57600080fd5b506100c6610184565b604051808273ffffffffffffffffffffffffffffffffffffffff1673ffffffffffffffffffffffffffffffffffffffff16815260200191505060405180910390f35b6101106101a9565b005b61011a61020b565b005b34801561012857600080fd5b50610131610356565b6040518082815260200191505060405180910390f35b34801561015357600080fd5b5061015c61035c565b005b600160009054906101000a900473ffffffffffffffffffffffffffffffffffffffff1681565b6000809054906101000a900473ffffffffffffffffffffffffffffffffffffffff1681565b6000809054906101000a900473ffffffffffffffffffffffffffffffffffffffff1673ffffffffffffffffffffffffffffffffffffffff163373ffffffffffffffffffffffffffffffffffffffff161461020257600080fd5b34600281905550565b6000809054906101000a900473ffffffffffffffffffffffffffffffffffffffff1673ffffffffffffffffffffffffffffffffffffffff163373ffffffffffffffffffffffffffffffffffffffff161461026457600080fd5b60011515600360009054906101000a900460ff1615151461028457600080fd5b600160009054906101000a900473ffffffffffffffffffffffffffffffffffffffff1673ffffffffffffffffffffffffffffffffffffffff166108fc6002549081150290604051600060405180830381858888f193505050501580156102ee573d6000803e3d6000fd5b5060006002819055506000600160006101000a81548173ffffffffffffffffffffffffffffffffffffffff021916908373ffffffffffffffffffffffffffffffffffffffff1602179055506000600360006101000a81548160ff021916908315150217905550565b60025481565b60001515600360009054906101000a900460ff1615151461037c57600080fd5b33600160006101000a81548173ffffffffffffffffffffffffffffffffffffffff021916908373ffffffffffffffffffffffffffffffffffffffff1602179055506001600360006101000a81548160ff02191690831515021790555056fea265627a7a723158208574ec48f025b6854e41c00282ee2bd8298e909e54f85fdf8a287db97742c37a64736f6c63430005100032",
  "source": "pragma solidity ^0.5.14;\n\ncontract Work4me {\n   \n    address public manager;\n    address payable public client;\n    uint public valueTask;\n    bool taskOpen;\n   \n    modifier restricted() {\n        require(msg.sender == manager);\n        _;\n    }\n    \n    constructor() public payable {\n        manager = msg.sender;\n    }\n    \n    function openTask() public payable restricted {\n        valueTask = msg.value;\n    }\n    \n    function enter() public {\n        require(taskOpen == false);\n        client = msg.sender;\n        taskOpen = true;\n    }\n    \n    function finalizeTask() public payable restricted {\n        require(taskOpen == true);\n        client.transfer(valueTask);\n        valueTask = 0;\n        client = 0x0000000000000000000000000000000000000000;\n        taskOpen = false;\n    }\n}\n",
  "sourcePath": "C:\\Users\\Anderson Melo\\Documents\\MEGA\\UFRPE - MESTRADO\\CURSOS\\Work4me App\\contracts\\Work4me.sol",
  "compiler": {
    "name": "solc",
    "version": "0.5.16+commit.9c3226ce.Emscripten.clang"
  },
  "schemaVersion": "3.0.23",
  "updatedAt": "2020-04-11T18:30:32.610Z",
  "networkType": "ethereum",
  "devdoc": {
    "methods": {}
  },
  "userdoc": {
    "methods": {}
  }
}